{
  "_format": "hh-sol-artifact-1",
  "contractName": "Transaction",
  "sourceName": "contracts/Transaction.sol",
  "abi": [
    {
      "anonymous": false,
      "inputs": [
        {
          "indexed": true,
          "internalType": "address",
          "name": "from",
          "type": "address"
        },
        {
          "indexed": true,
          "internalType": "address",
          "name": "to",
          "type": "address"
        },
        {
          "indexed": false,
          "internalType": "uint256",
          "name": "amount",
          "type": "uint256"
        },
        {
          "indexed": false,
          "internalType": "uint256",
          "name": "timestamp",
          "type": "uint256"
        }
      ],
      "name": "Transfer",
      "type": "event"
    },
    {
      "inputs": [],
      "name": "getContractBalance",
      "outputs": [
        {
          "internalType": "uint256",
          "name": "",
          "type": "uint256"
        }
      ],
      "stateMutability": "view",
      "type": "function"
    },
    {
      "inputs": [
        {
          "internalType": "address payable",
          "name": "_to",
          "type": "address"
        }
      ],
      "name": "transferFunds",
      "outputs": [],
      "stateMutability": "payable",
      "type": "function"
    },
    {
      "stateMutability": "payable",
      "type": "receive"
    }
  ],
  "bytecode": "0x608060405234801561001057600080fd5b5061032d806100206000396000f3fe60806040526004361061002d5760003560e01c80636f9fb98a14610039578063e39ff19f1461006457610034565b3661003457005b600080fd5b34801561004557600080fd5b5061004e610080565b60405161005b919061024f565b60405180910390f35b61007e60048036038101906100799190610191565b610088565b005b600047905090565b600034116100cb576040517f08c379a00000000000000000000000000000000000000000000000000000000081526004016100c29061022f565b60405180910390fd5b8073ffffffffffffffffffffffffffffffffffffffff166108fc349081150290604051600060405180830381858888f19350505050158015610111573d6000803e3d6000fd5b508073ffffffffffffffffffffffffffffffffffffffff163373ffffffffffffffffffffffffffffffffffffffff167f9ed053bb818ff08b8353cd46f78db1f0799f31c9e4458fdb425c10eccd2efc44344260405161017192919061026a565b60405180910390a350565b60008135905061018b816102e0565b92915050565b6000602082840312156101a357600080fd5b60006101b18482850161017c565b91505092915050565b60006101c7602a83610293565b91507f5472616e7366657220616d6f756e74206d75737420626520677265617465722060008301527f7468616e207a65726f2e000000000000000000000000000000000000000000006020830152604082019050919050565b610229816102d6565b82525050565b60006020820190508181036000830152610248816101ba565b9050919050565b60006020820190506102646000830184610220565b92915050565b600060408201905061027f6000830185610220565b61028c6020830184610220565b9392505050565b600082825260208201905092915050565b60006102af826102b6565b9050919050565b600073ffffffffffffffffffffffffffffffffffffffff82169050919050565b6000819050919050565b6102e9816102a4565b81146102f457600080fd5b5056fea2646970667358221220a5c2a92027e0494f647acea316812372bbfea03c91df69406224578ab71c697464736f6c63430008000033",
  "linkReferences": {},
  "deployedLinkReferences": {}
}